:100000000C9434000C9446000C9446000C9446006A
:100010000C9446000C9446000C9446000C94460048
:100020000C9446000C9446000C9446000C94460038
:100030000C9446000C9471000C9446000C944600FD
:100040000C9446000C9446000C9446000C94460018
:100050000C9446000C9446000C9446000C94460008
:100060000C9446000C94460011241FBECFEFD8E03C
:10007000DEBFCDBF21E0A0E0B1E001C01D92A43001
:10008000B207E1F70E9496000C94B2000C940000B5
:10009000E5ECF0E080818083E4ECF0E0808187662D
:1000A0008083E1ECF0E0808188608083E2ECF0E026
:1000B00080818E60808308959091C00095FFFCCF71
:1000C0008093C60008958FB780688FBFE1E8F0E0A5
:1000D000808185608083EFE6F0E0808181608083AD
:1000E00008951F920F920FB60F9211248F939F9332
:1000F000AF93BF938091000190910101A091020103
:10010000B09103010196A11DB11D80930001909350
:100110000101A0930201B0930301BF91AF919F91A0
:100120008F910F900FBE0F901F9018950E9448005E
:100130000E9463008091000190910101A091020151
:10014000B09103010397A105B105A0F382E30E94DA
:100150005C001092000110920101109202011092B5
:080160000301E8CFF894FFCF82
:00000001FF
